:100000000C94C7190C94F8190C94F8190C94F8195D
:100010000C94F8190C94F8190C94F8190C94F8191C
:100020000C94F8190C94F8190C94F8190C94F8190C
:100030000C94F8190C94F8190C94F8190C94F819FC
:100040000C94F8190C941D2E0C94F8190C94F819B2
:100050000C94F8190C94F8190C942E910D94E51148
:100060000C94F8190C943D930C94F8190C94F8190D
:100070000C94F8190C94F8190C94F8190C94F819BC
:100080000C94F8190C94F8190C94F8190C94F819AC
:100090000C94F8190C94F8190C94F8190D942B0978
:1000A0000C94F8190C94F8190C94F8190C94F8198C
:1000B0000C94F8190C94F8190C94F8190C94F8197C
:1000C0000C94F8190C94F8190C94F8190C94F8196C
:1000D0000C94F8190C94F8190C94F8190C94F8195C
:1000E0000C94F8199C91AC91CB91DB91F69106920E
:1000F0002192269229922E92319236924092ED00D0
:10010000C9001F010101F9001701F500FF00DF0020
:100110000501D70009010301D5001701F1000D0108
:1001200021011B01F300E700EF001501CB00D9000E
:10013000E1001D010701DB00FB00D1000F01CB0036
:10014000F70013011901084AD73B3BCE016E84BC6E
:10015000BFFDC12F3D6C74319ABD56833DDA3D0021
:10016000C77F11BED9E4BB4C3E916BAAAABE00006A
:1001700000803F05A84CCDB2D44EB93836A9020C48
:1001800050B9918688083CA6AAAA2ABE0000008021
:100190003F000D9454100D94DC110D94C10E0D947C
:1001A00085080D94AA110D9494080D9478100D945F
:1001B0006A100D946D110D9491110D9438100D94D9
:1001C00062100D9475110D9495080D94C1080D944D
:1001D0004F110D94FF080D946A080D9451100D9461
:1001E00059110D947E100D944A110D9458100D94D0
:1001F000BE110D944D100D949B110D9472080D9429
:100200005C100D9447100D9474100D9466100D94AD
:1002100087110D9470100D94F1120D9482100D94AD
:10022000B4110D94570B0D94C8110D9463110D94D6
:100230008B100D94D2110D9445110D947D110D94D8
:1002400043100D9486104D383420582059205A20E0
:100250004500656E6473746F7073206869743A202A
:100260005A5000205A5F4D494E5F50524F42453A16
:1002700000656E6473746F7073206869743A205AF5
:1002800000205A3A00656E6473746F707320686959
:10029000743A20590020593A00656E6473746F7087
:1002A00073206869743A20580020583A00656E64DB
:1002B00073746F7073206869743A200024F4D4302A
:1002C00050C38E20C2A24017828B7011127A910DFA
:1002D000816CD90AA861E108C758660761514306D5
:1002E0001E4B5D05C145A7041A411104093D980341
:1002F000713931034036DB0265339102D430540248
:10030000802E1D02632CEE01752AC501B028A001C4
:10031000102781018F2564012B244B01E022340139
:10032000AC211F018D200D01801FFC00841EED00FB
:10033000971DDF00B81CD200E61BC600201BBC00C6
:10034000641AB200B219A8000A19A0006A1899002C
:10035000D117910040178B00B516840031167E002E
:10036000B31579003A157300C7146F0058146A006A
:10037000EE1366008813630025135E00C7125B004E
:100380006C12570015125400C111510070114F002A
:1003900021114B00D61049008D1047004610440033
:1003A00002104200C00F4000800F3E00420F3C0090
:1003B000060F3B00CB0E3800930E37005C0E350065
:1003C000270E3400F30D3200C10D3100900D3000C6
:1003D000600D2E00320D2D00050D2C00D90C2B00C8
:1003E000AE0C2900850C29005C0C2700350C270079
:1003F0000E0C2600E80B2400C40B2400A00B2300E5
:100400007D0B23005A0B2100390B2100180B200013
:10041000F80A1F00D90A1E00BB0A1E009D0A1D0013
:10042000800A1D00630A1C00470A1B002C0A1B00DF
:10043000110A1A00F7091A00DD091900C409190088
:10044000AB091900920917007B091800630917000E
:100450004C09160036091600200916000A09150075
:10046000F5081500E0081400CC081400B8081400C2
:10047000A4081400900813007D0812006B081300F4
:100480005808120046081200340811002308110011
:100490001208110001081100F0071000E007100019
:1004A000D0071000C0071000B0070F00A107100010
:1004B00091070E0083070F0074070F0065070E00F9
:1004C00057070E0049070E003B070D002E070E00D0
:1004D00020070D0013070D0006070D00F9060C009C
:1004E000ED060D00E0060C00D4060C00C8060C005A
:1004F000BC060C00B0060C00A4060B0099060C000C
:100500008D060B0082060B0077060B006C060B00B5
:1005100061060A0057060B004C060A0042060A0054
:1005200038060A002E060A0024060A001A060A00E7
:100530001006090007060A00FD050900F405090078
:10054000EB050900E2050900D9050900D0050900FD
:10055000C7050900BE050900B5050800AD0508007E
:10056000A50509009C050800940508008C050800F5
:10057000840508007C050800740508006C05070068
:10058000650508005D050700560508004E050700D3
:10059000470507004005080038050700310507003A
:1005A0002A050700230507001C050600160507009D
:1005B0000F0507000805060002050700FB040600FA
:1005C000F5040700EE040600E8040600E204070054
:1005D000DB040600D5040600CF040600C9040600AB
:1005E000C3040600BD040600B7040600B1040500FC
:1005F000AC040600A6040600A00405009B04060047
:1006000095040500900406008A0405008504050091
:10061000800406007A0405007504050070040500D6
:100620006B04050066040500610405005C04050018
:1006300057040500520405004D0405004804050058
:10064000430405003E0404003A0405003504050097
:10065000300404002C0405002704040023040500D2
:100660001E0404001A04040016040500110404000A
:100670000D0404000904050004040400000404003F
:10068000FC030400F8030400F4030400F003040076
:10069000EC030400E8030400E4030400E0030400A6
:1006A000DC030400D8030400D4030400D0030400D6
:1006B000CC030400C8030300C503030024F404D9D9
:1006C000201BC40C5C0E9804C4095F02650771010D
:1006D000F405F900FB04B30048048700C103690076
:1006E0005803550003034500BE023A00840231005E
:1006F00053022A002902250004022000E4011C0004
:10070000C8011900AF0117009801140084011300FB
:10071000710110006101100051010E0043010D0034
:1007200036010B002B010B0020010B001501090005
:100730000C01090003010800FB000800F300080099
:10074000EB000700E4000600DE000600D80006000B
:10075000D2000600CC000500C7000500C20005005D
:10076000BD000400B9000400B5000400B10004009D
:10077000AD000400A9000400A5000300A2000300CE
:100780009F0004009B0003009800030095000200F6
:1007900093000300900003008D0002008B00030013
:1007A000880002008600020084000300810002002D
:1007B0007F0002007D0002007B0002007900020041
:1007C0007700010076000200740002007200010050
:1007D000710002006F0002006D0001006C00020059
:1007E0006A00010069000200670001006600010064
:1007F0006500010064000200620001006100010068
:10080000600001005F0002005D0001005C0001006B
:100810005B0001005A00010059000100580001006E
:10082000570001005600010055000100540001006E
:10083000530000005300010052000100510001006C
:10084000500001004F0001004E0000004E0001006A
:100850004D0001004C0001004B0000004B00010066
:100860004A00010049000100480000004800010062
:10087000470001004600000046000100450000005E
:100880004500010044000100430000004300010056
:100890004200000042000100410000004100010050
:1008A000400001003F0000003F0001003E0000004A
:1008B0003E0001003D0000003D0001003C00000042
:1008C0003C0000003C0001003B0000003B00010038
:1008D0003A0000003A000100390000003900010030
:1008E0003800000038000000380001003700000028
:1008F000370001003600000036000000360001001D
:100900003500000035000000350001003400000013
:100910003400000034000100330000003300000008
:1009200033000100320000003200000032000100FC
:1009300031000000310000003100010030000000F3
:1009400030000000300001002F0000002F000000E8
:100950002F0000002F0001002E0000002E000000DC
:100960002E0001002D0000002D0000002D000000D1
:100970002D0001002C0000002C0000002C000000C5
:100980002C0001002B0000002B0000002B000000B9
:100990002B0001002A0000002A0000002A000000AD
:1009A0002A000100290000002900000029000000A1
:1009B0002900000029000100280000002800000094
:1009C0002800000028000000280001002700000087
:1009D000270000002700000027000000270001007A
:1009E000260000002600000026000000260000006F
:1009F0002600010025000000250000002500000061
:100A00002500000025000000250001002400000052
:100A10002400000024000000240000002400010045
:100A2000230000002300000023000000230000003A
:100A3000230000002300000023000100220000002A
:100A4000220000002200000022000000220000001E
:100A50002200010021000000210000002100000010
:100A60002100000021000000210000002100010001
:100A700020000000200000002000000020000000F6
:100A800020000000200000002000000020000100E5
:100A90001F0000001F0000001F0000001F000000DA
:100AA0001F0000001F0000001F0001001E000000CA
:100AB0001E0000001E0000001E00000053442065C0
:100AC0007870756C736164612E00534420646574A2
:100AD0006563746164612E004D3432380009200072
:100AE0000920002D2D2D2E2D2D002D2D2D002D2DED
:100AF0002D002D2D2D002D2D3A2D2D0042616279D6
:100B00007374657070696E67205A00426162797310
:100B1000746570205A00466C757865203200466C0A
:100B2000757865203200466C757865203100466C1A
:100B3000757865203100466C75786500466C75786F
:100B4000650056656C2E2056656E74696C61646F25
:100B5000720056656C2E2056656E74696C61646F08
:100B600072004C6C6974004C6C6974004E6F7A7A38
:100B70006C652032004E6F7A7A6C652032004E6FC1
:100B80007A7A6C652031004E6F7A7A6C652031007C
:100B900056656C6F63697461740056656C6F636948
:100BA000746174004D656E75207072696E63697052
:100BB000616C004D6F7572652058004D6F757265E0
:100BC0002059004D6F757265205A00457874727512
:100BD000736F7232004578747275736F72310045AD
:100BE00078747275736F7232004578747275736FB2
:100BF0007231004D6F757265205A004D6F757265C8
:100C00002059004D6F7572652058004D6F757265E3
:100C1000206569786F73004D6F75726520302E31D5
:100C20006D6D004D6F75726520316D6D004D6F7586
:100C300072652031306D6D00507265706172617245
:100C4000005072656573632E206C6C697420504C83
:100C500041005072656573632E20746F7420504C90
:100C60004100507265657363616C66617220504C1F
:100C700041203200507265657363616C6661722059
:100C8000504C4120310050726570617261720050A9
:100C900072656573632E206C6C6974204142530049
:100CA0005072656573632E20746F74204142530047
:100CB000507265657363616C6661722041425320B6
:100CC0003200507265657363616C666172204142E7
:100CD000532031005072657061726172004D38307E
:100CE0000053776974636820706F776572206F6E48
:100CF000004D38310053776974636820706F7765F1
:100D000072206F666600526566726564617200509B
:100D10007265657363616C66617220414253005075
:100D20007265657363616C66617220504C41004D61
:100D3000383400417061676172206D6F746F727337
:100D4000004D6F757265206569786F7300473239A1
:100D5000004C6576656C206265640053657420689C
:100D60006F6D65206F666673657473004732380077
:100D7000486F6D6520676C6F62616C004D656E75C4
:100D8000207072696E636970616C00446573617292
:100D90002061206D656D6F726961004C6C69740033
:100DA0004C6C6974004E6F7A7A6C65004E6F7A7A7B
:100DB0006C650056656C2E2056656E74696C6164B6
:100DC0006F720056656C2E2056656E74696C616496
:100DD0006F720054656D7065726174757261004464
:100DE000657361722061206D656D6F726961004C81
:100DF0006C6974004C6C6974004E6F7A7A6C650093
:100E00004E6F7A7A6C650056656C2E2056656E744E
:100E1000696C61646F720056656C2E2056656E7445
:100E2000696C61646F720054656D70657261747590
:100E3000726100436F6E6669677572616369C3B3FF
:100E40002041425300436F6E666967757261636942
:100E5000C3B320504C41005049442D4300504944F5
:100E60002D43005049442D44005049442D44005026
:100E700049442D49005049442D49005049442D50C2
:100E8000005049442D50000820466163740008203A
:100E9000466163740008204D61780008204D617838
:100EA0000008204D696E0008204D696E0041757480
:100EB0006F74656D70004F6666004F6E200056655A
:100EC0006C2E2056656E74696C61646F7200566595
:100ED0006C2E2056656E74696C61646F72004C6C88
:100EE0006974004C6C6974004E6F7A7A6C652032BC
:100EF000004E6F7A7A6C652032004E6F7A7A6C659C
:100F00002031004E6F7A7A6C65203100436F6E7429
:100F1000726F6C0045706173736F732F6D6D004558
:100F2000706173736F732F6D6D005A706173736F9F
:100F3000732F6D6D005A706173736F732F6D6D0039
:100F400059706173736F732F6D6D00597061737396
:100F50006F732F6D6D0058706173736F732F6D6DAC
:100F60000058706173736F732F6D6D00412D747233
:100F70006176656C00412D74726176656C00412D5F
:100F80007265747261637400412D7265747261637D
:100F90007400416D6178206500416D6178206500C5
:100FA000416D6178207A00416D6178207A00416D51
:100FB0006178207900416D6178207900416D617818
:100FC000207800416D617820780056547261762057
:100FD0006D696E005654726176206D696E00566DB3
:100FE000696E00566D696E00566D61782065005619
:100FF0006D6178206500566D6178207A00566D61CC
:1010000078207A00566D6178207900566D617820DD
:101010007900566D6178207800566D6178207800EF
:1010200056652D6A65726B0056652D6A65726B0098
:10103000567A2D6A65726B00567A2D6A65726B005E
:101040005678792D6A65726B005678792D6A6572CB
:101050006B00416363656C00416363656C005A20FB
:101060004F6666736574005A204F66667365740038
:10107000436F6E74726F6C0046696C2E2044696118
:101080002E20320046696C2E204469612E203200E9
:1010900046696C2E204469612E20310046696C2E11
:1010A000204469612E2031004520696E206D6D332A
:1010B000004F6666004F6E2000436F6E74726F6C57
:1010C00000526573742E20656D657267656E636985
:1010D00061004361727265676172206465206D65AD
:1010E0006D2E0044657361722061206D656D6F72B5
:1010F00069610046696C616D656E74004D6F76695B
:101100006D656E740054656D7065726174757261A1
:10111000004D656E75207072696E636970616C0058
:101120004D3234004D323320257300022E2E004DF7
:10113000656E75207072696E636970616C002D5305
:10114000656E736520746172676574612053440035
:10115000496D7072696D6972206465205344005056
:101160006172617220696E702E0052657072656ED8
:1011700064726520696D702E00506175736120691D
:101180006D702E00436F6E74726F6C0050726570DC
:10119000617261720043616C6962726172005061D8
:1011A0006E74616C6C6120496E666F2E00000609DA
:1011B00000FE070192032120FFFF08FF07FF000048
:1011C0000006000001070706020080808080800082
:1011D00080030202060105A0A005070706000050D3
:1011E00050F850F850500507070600002078A0700E
:1011F00028F020050707060000C0C81020409818F6
:101200000507070600006090A040A890680203034D
:10121000060104C0408003070706010020408080CB
:1012200080402003070706010080402020204080E6
:1012300005050506000120A870A820050505060083
:10124000012020F820200203030602FFC040800591
:101250000101060003F8020202060200C0C00505F3
:1012600005060001081020408005070706000070F1
:1012700088888888887003070706010040C04040BE
:101280004040E0050707060000708808708080F87D
:10129000050707060000F81020100808F0050707EA
:1012A00006000010305090F81010050707060000E7
:1012B000F880F00808887005070706000070808035
:1012C000F0888870050707060000F8081020202025
:1012D0002005070706000070888870888870050759
:1012E0000706000070888878080870020505060265
:1012F00000C0C000C0C00206060602FFC0C000C099
:1013000040800407070600001020408040201005A0
:101310000303060002F800F80407070601008040F6
:101320002010204080050707060000708808102064
:10133000002005070706000070880868A8A8700547
:101340000707060000708888F88888880507070660
:101350000000F08888F08888F00507070600007014
:10136000888080808870050707060000F0888888DC
:101370008888F0050707060000F88080F08080F874
:10138000050707060000F88080F0808080050707C9
:10139000060000708880B88888700507070600007E
:1013A000888888F88888880107070602008080807E
:1013B000808080800507070600003810101010900C
:1013C000600507070600008890A0C0A09088050768
:1013D00007060000808080808080F80507070600EF
:1013E0000088D8A8888888880507070600008888AC
:1013F000C8A898888805070706000070888888882C
:101400008870050707060000F08888F08080800556
:10141000070706000070888888A8906805070706F7
:101420000000F08888F0A090880507070600007883
:101430008080700808F0050707060000F8202020CB
:101440002020200507070600008888888888887083
:101450000507070600008888888888502005070748
:101460000600008888888888A850050707060000BD
:1014700088885020508888050707060000888888DB
:1014800050202020050707060000F80810204080A3
:10149000F8030707060100E08080808080E00505F2
:1014A000050600018040201008030707060100E040
:1014B0002020202020E0050303060004205088059A
:1014C0000101060000F8020202060205804005053F
:1014D0000506000070087888780507070600008078
:1014E00080B0C88888F005050506000070808088F7
:1014F00070050707060000080868988888780505C1
:10150000050600007088F8807005070706000030A7
:1015100048E0404040400506060600FF7088887895
:1015200008700507070600008080B0C88888880119
:10153000070706020080008080808080030808067C
:1015400001FF200020202020A04004070706000003
:10155000808090A0C0A090030707060100C0404013
:10156000404040E0050505060000D0A8A8A8A80551
:101570000505060000B0C888888805050506000036
:1015800070888888700506060600FFF08888F0805D
:10159000800506060600FF78888878080805050596
:1015A000060000B0C8808080050505060000708038
:1015B0007008F00407070600004040E0404040305B
:1015C0000505050600008888889868050505060059
:1015D0000088888850200505050600008888A8A88E
:1015E00050050505060000885020508805060606AF
:1015F00000FF888888780870050505060000F81047
:101600002040F803070706010020404080404020AA
:101610000107070602008080808080808003070722
:101620000601008040402040408005020206000282
:1016300068900000000600000000000600000000A6
:101640000006000000000006000000000006000088
:101650000000000600000000000600000000000678
:10166000000000000006000000000006000000006E
:101670000006000000000006000000000006000058
:101680000000000600000000000600000000000648
:10169000000000000006000000000006000000003E
:1016A0000006000000000006000000000006000028
:1016B0000000000600000000000600000000000618
:1016C000000000000006000000000006000000000E
:1016D00000060000000000060000000000060000F8
:1016E00000000006000000000006000000000006E8
:1016F00000000000000600000000000600000107D6
:1017000007060200800080808080800507070600B1
:10171000002070A8A0A87020050707060000304030
:1017200040E04050A805050506000088705070880C
:10173000050707060000885020F820F82001070759
:101740000602008080800080808005080806000076
:101750003048205050209060030101060107A00589
:101760000707060000F888B8B8B888F80507070624
:101770000001700878887800F80505050600012842
:1017800050A05028050303060001F80808020202D1
:101790000602064080050707060000F888A888981A
:1017A000A8F8050101060006F80404040600036019
:1017B0009090600507070600002020F8202000F820
:1017C00004050506000360902040F00305050600AF
:1017D00003E020E020E00202020602064080050845
:1017E000080600FF8888888898E880800507070633
:1017F000000078989878181818020202060202C0B1
:10180000C00202020602FF408003050506000340F5
:10181000C04040E005070706000170888888700016
:10182000F8050505060001A0502850A00507070689
:1018300000008890A858B808080507070600008827
:1018400090B848982038050808060000C040C048F5
:10185000D8380808050707060000200020408088C7
:10186000700508080600004020007088F888880588
:1018700008080600001020007088F888880508080D
:101880000600002050007088F888880508080600C7
:10189000006890007088F8888805080806000050E5
:1018A00000708888F8888805080806000020502005
:1018B0007088F888880507070600003860A0B8E03F
:1018C000A0B80508080600FF708880808870206036
:1018D000050808060000402000F880F080F80508A0
:1018E00008060000081000F880F080F805080806D7
:1018F0000000205000F880F080F80507070600007F
:101900005000F880F080F8030808060100804000CD
:10191000E0404040E0030808060100204000E040AD
:101920004040E003080806010040A000E0404040BD
:10193000E0030707060100A000E0404040E0050783
:1019400007060000704848E8484870050808060087
:101950000068900088C8A89888050808060000401C
:10196000207088888888700508080600001020709C
:101970008888888870050808060000205000708854
:1019800088887005080806000068900070888888BC
:101990007005080806000050007088888888700567
:1019A000050506000188502050880508080600FF3C
:1019B0001070A8A8A8A870400508080600004020DC
:1019C00088888888887005080806000010208888A4
:1019D00088888870050808060000205000888888DC
:1019E000887005080806000050008888888888707C
:1019F0000508080600001020885020202020050936
:101A0000090600FFC040704848704040E0040808E4
:101A10000601FF609090A09090E080050808060005
:101A2000004020007008788878050808060000103B
:101A3000200070087888780508080600002050000B
:101A4000700878887805080806000068900070081B
:101A500078887805070706000050007008788878B5
:101A600005080806000020502070087888780506D0
:101A700006060000D02878A0A8500506060600FF3C
:101A80007080887020600508080600004020007003
:101A900088F880700508080600001020007088F89B
:101AA00080700508080600002050007088F88070DB
:101AB00005070706000050007088F88070030808CA
:101AC00006010080400040C04040E00308080601D5
:101AD0000020400040C04040E003080806010040EC
:101AE000A00040C04040E0030707060100A00040FE
:101AF000C04040E0050707060000A040A01078881D
:101B000070050808060000689000B0C8888888053D
:101B100008080600004020007088888870050808C2
:101B200006000010200070888888700508080600EC
:101B3000002050007088888870050808060000683A
:101B400090007088888870050707060000500070B4
:101B5000888888700505050600012000F80020052A
:101B600007070600FF1070A8A8A87040050808061F
:101B70000000402000888888986805080806000052
:101B80001020008888889868050808060000205002
:101B90000088888898680507070600005000888834
:101BA0008898680509090600FF102000888888F8D1
:101BB00008700407070601FFC04060506040E00560
:101BC00008080600FF500088888878087000060919
:101BD00000FE000000000001090008FE00000508EA
:101BE0000806000040F0C8888898781005080806A4
:101BF0000000C0F88888888888F805050506000177
:101C00002030F830200508080600002070F8202059
:101C10002020E00509090600FF2070A8A8B88888E0
:101C200070200509090600FFE080C0B0A828302810
:101C3000280509090600FFF8A88888888888A8F878
:101C4000050A0A0600FE205050505088A8A8887047
:101C500003030306000340A0400000000000000052
:101C600000000000007FFFE0000000000000000016
:101C7000000000007000E000000000000000000014
:101C800000000061F860000000000000000000009B
:101C9000000041F8200000000000000000000000EB
:101CA0000040F020000000000000000000000000E4
:101CB000406020000000000000000000000000580C
:101CC00001A07F80003FC0000000004104005C6371
:101CD000A0FBC00079E0000000002082005EF7A0B9
:101CE000F3C00076E0000000002082005EF7A0EB69
:101CF000C0007EE0000000004104005C63A07B8027
:101D0000003DC0000000008208005801A07B800058
:101D10003BC000000001041000406020FBC00077C1
:101D2000E00000000104100040F020FBC00070E063
:101D30000000000082080041F820FFC0007FE000A2
:101D400000000041040061F8603F00001F800000B7
:101D500000000000007000E01E00000F0000000006
:101D600001FFFF807FFFE00C000006000000000183
:101D7000FFFF8000000000000000000000000000E5
:101D800000007FFFE00000000000000000000000F5
:101D9000007000E0000000000000000000000000F3
:101DA000630C60000000000000000000000000471D
:101DB0000E200000000000000000000000004F0F97
:101DC000200000000000000000000000005F0FA0E5
:101DD0000000000000000000000000005E07A07F7F
:101DE00080003FC000000000410400406020FBC0B4
:101DF0000079E00000000020820040F020F3C000E5
:101E000076E00000000020820040F020EBC0007E61
:101E1000E0000000004104004060207B80003DC0E5
:101E2000000000008208005E07A07B80003BC0002D
:101E30000000010410005F0FA0FBC00077E000006D
:101E400000010410004F0F20FBC00070E0000000F4
:101E500000820800470E20FFC0007FE00000000065
:101E6000410400630C603F00001F80000000000080
:101E700000007000E01E00000F0000000001FFFFE6
:101E8000807FFFE00C0000060000000001FFFF80E3
:101E90000000001FFFFFFFFFFFFF600000000001C8
:101EA000FF400000000000FF8000000000007F8372
:101EB000CF00000C303F87FF80000C301F867980F8
:101EC000000C000F8C30C7838C30E78C30CFC7CC30
:101ED00031F38C30DCECEC33B98C30D86C6C3319CA
:101EE0008C30D06C0C33198C30D86C0C33198C308E
:101EF000DC6C0E3B198C30CF7C079F198C30C77C73
:101F0000038F194000000000000260000000000084
:101F1000061FFFFFFFFFFFF820204D383531205A04
:101F2000005A2D50726F6265204F6666736574208B
:101F3000286D6D293A0020204D3230302044300089
:101F400020204D32303020543120440020204D32AA
:101F500030302044002044697361626C656400463F
:101F6000696C616D656E742073657474696E6773F6
:101F70003A00204C0020430020440020490020204B
:101F80004D333031205000204C00204300204400CD
:101F900020490020500020204D3330312045005092
:101FA00049442073657474696E67733A0020460073
:101FB00020420020204D313435204D312048002072
:101FC000460020420020204D313435204D3020483D
:101FD000004D6174657269616C206865617475702B
:101FE00020706172616D65746572733A00205A00E9
:101FF00020590020204D323036205800486F6D6542
:10200000206F666673657420286D6D293A0020453F
:1020100000205A0020580020420020540020204D6B
:10202000323035205300416476616E6365642076FA
:1020300061726961626C65733A20533D4D696E202F
:10204000666565647261746520286D6D2F73292C37
:1020500020543D4D696E2074726176656C20666512
:1020600065647261746520286D6D2F73292C204280
:102070003D6D696E696D756D207365676D656E7414
:102080002074696D6520286D73292C20583D6D6181
:1020900078696D756D205859206A65726B20286DBE
:1020A0006D2F73292C20205A3D6D6178696D756DF7
:1020B000205A206A65726B20286D6D2F73292C20A1
:1020C00020453D6D6178696D756D2045206A6572AA
:1020D0006B20286D6D2F73290020540020520020A2
:1020E000204D323034205000416363656C6572616D
:1020F00074696F6E733A20503D7072696E74696EC8
:10210000672C20523D7265747261637420616E6445
:1021100020543D74726176656C00204500205A00A1
:1021200020590020204D3230312058004D6178690F
:102130006D756D20416363656C65726174696F6E66
:1021400020286D6D2F7332293A00204500205A0057
:1021500020590020204D3230332058004D617869DD
:102160006D756D2066656564726174657320286D98
:102170006D2F73293A00204500205A002059002075
:10218000204D393220580053746570732070657289
:1021900020756E69743A0048617264636F646564A7
:1021A0002044656661756C742053657474696E674C
:1021B00073204C6F616465640020627974657329D3
:1021C000002073746F7265642073657474696E6740
:1021D00073207265747269657665642028002062D8
:1021E00079746573290053657474696E677320533D
:1021F000746F7265642028004572726F7220777266
:102200006974696E6720746F20454550524F4D21A7
:10221000004D494E54454D50207472696767657290
:102220006564004572723A204D494E54454D502028
:10223000424544004D415854454D502074726967E1
:102240006765726564004572723A204D4158544585
:102250004D502042454400546865726D616C2052B7
:10226000756E6177617900544845524D414C20525A
:10227000554E415741590048656174696E67206643
:1022800061696C65640048656174696E67206661A8
:10229000696C6564004D494E54454D502074726917
:1022A000676765726564004572723A204D494E5405
:1022B000454D5000626564002C2073797374656D20
:1022C0002073746F70706564212048656174657255
:1022D0005F49443A20004D415854454D5020747296
:1022E00069676765726564004572723A204D4158AE
:1022F00054454D50004B64200023646566696E654B
:10230000202044454641554C545F004B6920002332
:10231000646566696E65202044454641554C545FAE
:10232000004B70200023646566696E65202044457B
:102330004641554C545F00504944204175746F74B8
:10234000756E652066696E697368656421205075D5
:102350007420746865206C617374204B702C204B62
:102360006920616E64204B6420636F6E7374616ECC
:1023700074732066726F6D2062656C6F7720696E72
:10238000746F20436F6E66696775726174696F6EF2
:102390002E6800504944204175746F74756E652035
:1023A0006661696C6564212074696D656F75740080
:1023B00020403A00543A00423A00504944204175C6
:1023C000746F74756E65206661696C656421205454
:1023D000656D706572617475726520746F6F2068C9
:1023E00069676800204B643A2000204B693A20005E
:1023F000204B703A200020436C6173736963205056
:10240000494420002054753A2000204B753A2000A2
:10241000206D61783A2000206D696E3A20002064BA
:102420003A200020626961733A20001000C902104E
:10243000012C014001220170011801B0010E01F0D0
:102440000104015002FA00B002F0003003E600D0AF
:1024500003DC009004D2007005C800A006BE000096
:1024600008B400B009AA00D00BA000600E9600606E
:10247000118C000015820020197800C01D6E00A08C
:10248000226400B0275A00902C500000314600E032
:10249000343C0010383200903A2800603C1E00A006
:1024A0003D1400803E0A00203F000070012C019086
:1024B000012701B0012201C0011D01F00118011026
:1024C00002130130020E016002090190020401C0F2
:1024D00002FF000003FA004003F5008003F000D083
:1024E00003EB002004E6007004E100E004DC00409F
:1024F00005D700C005D2004006CD00D006C8008038
:1025000007C3003008BE00F008B900C009B400B02D
:102510000AAF00B00BAA00D00CA500000EA000501E
:102520000F9B00C01096005012910000148C00C048
:10253000158700B0178200B0197D00D01B7800000D
:102540001E730040206E0090226900F02464004059
:10255000275F0090295A00E02B5500102E500020D4
:10256000304B0010324600E033410090353C001003
:1025700037370070383200A0392D00B03A2800A05B
:102580003B2300603C1E00103D1900903D140010DC
:102590003E0F00703E0A00C03E0500003F000020D4
:1025A000496E76616C6964206578747275646572D1
:1025B00020005072696E7465722068616C74656485
:1025C0002E206B696C6C28292063616C6C6564211A
:1025D0000050415241444120444520454D45524719
:1025E0002E200050415241444120444520454D4554
:1025F00052472E200020746F6F206C6F6E6720652D
:102600007874727573696F6E2070726576656E741A
:1026100065640020636F6C642065787472757369FB
:102620006F6E2070726576656E746564006F6B0006
:10263000526573656E643A2000486F74656E64205D
:102640006F6666736574733A003A20007A5F6D6155
:10265000783A20007A5F6D696E3A20006F6B005AFD
:10266000204F6666736574004D3330302053363525
:102670003920503230300A4D33303020533639381B
:102680002050323030004F66667365742061707080
:102690006C6965642E004D33303020533430205047
:1026A000323030004572723A20546F6F206661728A
:1026B0002100546F6F206661722066726F6D207208
:1026C00065666572656E636520706F696E7400483B
:1026D0006F74656E64206F6666736574733A005339
:1026E000657474696E672054726176656C2041630D
:1026F00063656C65726174696F6E3A20005365742E
:1027000074696E67205265747261637420416363FB
:10271000656C65726174696F6E3A200053657474FC
:10272000696E67205072696E7420416363656C65E1
:10273000726174696F6E3A200053657474696E67D4
:10274000205072696E7420616E64205472617665E7
:102750006C20416363656C65726174696F6E3A20C9
:10276000004D31343520533C696E6465783E206FEE
:102770007574206F662072616E67652028302D3178
:1027800029007A5F70726F62653A20007A5F6D6926
:102790006E3A2000795F6D61783A2000795F6D694B
:1027A0006E3A2000785F6D61783A2000785F6D693D
:1027B0006E3A2000205A3A0020593A0020436F75A3
:1027C0006E7420583A200020453A00205A3A0020E2
:1027D000593A00583A004649524D574152455F4ECA
:1027E000414D453A4D61726C696E20312E312E306B
:1027F0002D5243322046726F6D20417263686976B4
:102800006520534F555243455F434F44455F5552F2
:102810004C3A687474703A2F2F202E2E2E2050526E
:102820004F544F434F4C5F56455253494F4E3A31E8
:102830002E30204D414348494E455F545950453A4A
:102840005B5369726975735D204558545255444510
:10285000525F434F554E543A3220555549443A3011
:10286000303030303030302D303030302D3030306E
:10287000302D303030302D3030303030303030305E
:102880003030300A005B5369726975735D204F66A2
:10289000662E005B5369726975735D207072657096
:1028A00061726164612E0042656420646F6E652E02
:1028B0000020423A0020453A00543A004265642024
:1028C00048656174696E672E0048656174696E675A
:1028D00020646F6E652E003F0020573A0020453A75
:1028E00000543A0048656174696E672E2E2E0020F0
:1028F00042403A0020403A00202F00205400202F70
:102900000020423A00202F0020543A006F6B005004
:10291000415241444120444520454D4552472E20D7
:102920000044454255472044525952554E20454E89
:1029300041424C4544004445425547204543484F99
:1029400020454E41424C4544005374616E646172AF
:102950006420446576696174696F6E3A20004D6544
:10296000616E3A20002020207369676D613A200073
:10297000206D65616E3A20002020207A3A200020E8
:102980006F662000793A2000783A2000506F736912
:1029900074696F6E696E67207468652070726F620B
:1029A000652E2E2E0A003F4E756D626572206F6691
:1029B000206C65677320696E206D6F76656D656E3E
:1029C00074206E6F7420706C61757369626C652021
:1029D00028302D3135292E0A00590058003F536107
:1029E0006D706C652073697A65206E6F7420706CF1
:1029F00061757369626C652028342D3530292E0A83
:102A0000004D3438205A2D50726F62652052657027
:102A10006561746162696C69747920746573740AA4
:102A2000003F566572626F7365204C6576656C2059
:102A30006E6F7420706C61757369626C65202830EC
:102A40002D34292E0A002569206D696E2C202569F8
:102A50002073656300456E642066696C65206C694F
:102A6000737400426567696E2066696C65206C69E5
:102A700073740053656E7365206D6F76696D656E56
:102A8000742E005B5369726975735D207072657096
:102A900061726164612E0052657072656E656E745C
:102AA00020696D702E004573706572616E742075BB
:102AB00073756172692E2E00205A3A200020593A0F
:102AC000200042656420583A2000205A3A20002015
:102AD000593A200042656420583A2000202B0020FB
:102AE0000A436F72726563746564204265642048AE
:102AF00065696768742076732E2042656420546F80
:102B0000706F6C6F67793A200A00202B002B2D2DF7
:102B10002D2D2D2D2D2D2D2D2D2B0A007C2E2E2EE5
:102B200046726F6E742E2E2E7C0A007C4C65667485
:102B30002E2E52696768747C0A007C2E2E2E42610C
:102B4000636B2E2E2E2E7C0A002B2D2D2D2D2D2D40
:102B50002D2D2D2D2D2B0A00200A4265642048655D
:102B60006967687420546F706F6772617068793A32
:102B7000200A004D65616E206F662073616D706C78
:102B8000656420706F696E74733A200020643A2087
:102B90000020623A200045716E20636F65666669A9
:102BA0006369656E74733A20613A20002842296196
:102BB000636B00284629726F6E740028522969677A
:102BC000687400284C29656674003F4E756D626517
:102BD00072206F662070726F626564202850296FC2
:102BE000696E747320697320696D706C61757369A7
:102BF000626C65202832206D696E696D756D292EB5
:102C00000A0052756E6E696E6720696E20445259D3
:102C10002D52554E206D6F64650047323920417545
:102C2000746F20426564204C6576656C696E670A36
:102C3000003F2856296572626F7365204C65766582
:102C40006C20697320696D706C61757369626C6565
:102C50002028302D34292E00486F6D6520582F59BB
:102C6000206162616E73205A00486F6D6520582F95
:102C700059206162616E73205A005761726E696EED
:102C8000673A20486F6D696E672042756D70204409
:102C9000697669736F72203C203100486F6D652042
:102CA000582F59206162616E73205A00486F6D651C
:102CB00020582F59206162616E73205A005A20708B
:102CC000726F6265206F75742E20626564005A20F1
:102CD00070726F6265206F75742E20626564005299
:102CE00065706F732E2E2E0020706F736974696F7C
:102CF0006E206F7574206F662072616E67652E009E
:102D00003F50726F62652000220A00556E6B6E6F35
:102D1000776E20636F6D6D616E643A2022002569C5
:102D200020686F757273202569206D696E757465F2
:102D30007300446F6E65207072696E74696E6720EF
:102D400066696C650050415241444120444520452C
:102D50004D4552472E20004154555241542E2000DB
:102D60005072696E7465722073746F707065642040
:102D700064756520746F206572726F72732E2046C1
:102D8000697820746865206572726F7220616E6464
:102D900020757365204D39393920746F2072657341
:102DA000746172742E202854656D7065726174753B
:102DB00072652069732072657365742E2053657483
:102DC0002069742061667465722072657374617223
:102DD00074696E6729004E6F204C696E65204E75D0
:102DE0006D626572207769746820636865636B73D0
:102DF000756D2C204C617374204C696E653A20000F
:102E00004E6F20436865636B73756D2077697468D6
:102E1000206C696E65206E756D6265722C204C6148
:102E20007374204C696E653A2000636865636B7348
:102E3000756D206D69736D617463682C204C6173CE
:102E400074204C696E653A20004C696E65204E75A1
:102E50006D626572206973206E6F74204C617374AB
:102E6000204C696E65204E756D6265722B312C2089
:102E70004C617374204C696E653A20004D313130DD
:102E8000006F6B00446F6E6520736176696E67201A
:102E900066696C652E004D3239002020506C616EE1
:102EA0006E657242756666657242797465733A2022
:102EB000002046726565204D656D6F72793A20007D
:102EC000466562202031203230313600436F6D700C
:102ED000696C65643A2000286E6F6E652C2064650D
:102EE0006661756C7420636F6E6669672900207C6B
:102EF00020417574686F723A2000323031352D30C0
:102F0000392D32382031323A303000204C61737420
:102F100020557064617465643A200020312E312E92
:102F2000302D524332004D61726C696E0020536F38
:102F3000667477617265205265736574002057610D
:102F4000746368646F672052657365740020427211
:102F50006F776E206F75742052657365740020451D
:102F6000787465726E616C20526573657400506F81
:102F70007765725570007374617274002200656E1B
:102F80007175657565696E67202200FFFFFF00009F
:102F9000404000004040000020410000A9430000E4
:102FA0005F4300004D43000038C2000090C10000A4
:102FB00000000000924300004D4300004D4300001C
:102FC00038C2000090C1000000006563686F3A00DD
:102FD0004572726F723A0020746F6F206C6F6E676B
:102FE00020657874727573696F6E2070726576658E
:102FF0006E7465640020636F6C642065787472750C
:1030000073696F6E2070726576656E7465640020FA
:103010007A3A200020793A200020783A20007C3C3F
:103020003E5E2B3D3F2F5B5D3B2C2A225C004D38E2
:103030003420582059205A20450043616E6E6F7429
:1030400020656E746572207375626469723A20003F
:103050004D3234004D3233202573006175746F2575
:10306000692E67006572726F722077726974696E7B
:103070006720746F2066696C65004E6F742053443E
:10308000207072696E74696E6700534420707269B3
:103090006E74696E672062797465200044656C65A2
:1030A00074696F6E206661696C65642C2046696C7A
:1030B000653A200046696C652064656C65746564DA
:1030C0003A006F70656E206661696C65642C2046FD
:1030D000696C653A200057726974696E6720746F75
:1030E0002066696C653A20002E0A006F70656E20BC
:1030F0006661696C65642C2046696C653A20002E17
:103100000A006F70656E206661696C65642C2046EC
:10311000696C653A200046696C652073656C65636F
:10312000746564002053697A653A200046696C65CD
:10313000206F70656E65643A20006F70656E206662
:1031400061696C65642C2046696C653A20004E6F9D
:10315000772066726573682066696C653A20004E58
:103160006F7720646F696E672066696C653A20002E
:103170002220706F73002220706172656E743A2293
:1031800000535542524F5554494E452043414C4CF3
:10319000207461726765743A220050415241444183
:1031A00020444520454D4552472E200074727969D0
:1031B0006E6720746F2063616C6C207375622D677D
:1031C000636F64652066696C657320776974682035
:1031D000746F6F206D616E79206C6576656C732EEF
:1031E000204D4158206C6576656C2069733A005318
:1031F000442063617264206F6B006F70656E526F64
:103200006F74206661696C656400766F6C756D65BE
:103210002E696E6974206661696C65640053442090
:10322000696E6974206661696C0000000A0B02090E
:103230000C0D0E0807030401000000000000000050
:10324000000000000000000000000000000000007E
:10325000000000000000121110000000000000003B
:10326000000000000000000000000000000000005E
:103270000102102020080810204010204080020188
:10328000020108040201010204081020408080406D
:10329000201008040201800402018040201008046C
:1032A000020108040201010204081020408001020A
:1032B00004081020408005050505070508080808D2
:1032C000020202020A0A08080404040401010101BE
:1032D00001010101030303030303030304070707B9
:1032E0000C0C0C0C0C0C0C0C02020202060606065E
:1032F000060606060B0B0B0B0B0B0B0B000020003E
:103300002300260029002C002F00320000010000BD
:1033100003010601090100002200250028002B00FE
:103320002E003100340002010000050108010B01EC
:1033300000002100240027002A002D003000330067
:1033400001010000040107010A014E414E494E49A6
:103350005459494E46CDCCCC3D0AD7233C17B7D162
:103360003877CC2B329595E6241FB14F0A00002008
:10337000410000C84200401C4620BCBE4CCA1B0E87
:103380005AAEC59D7400F275C4D6E900C8D61124A2
:103390001FBECFEFD1E2DEBFCDBF00E00CBF14E017
:1033A000A0E0B2E0E0E1FDE302E00BBF02C0079065
:1033B0000D92AE3EB107D9F726E1AEEEB4E001C002
:1033C0001D92A23DB207E1F713E3CCE8D3E300E09E
:1033D00006C022970109FE010BBF0F944218C638A0
:1033E000D10780E00807A9F70F9421130D94771EE9
:1033F0000C9400004F925F926F927F92AF92BF92B7
:10340000CF92DF92EF92FF920F931F93CF93DF93B0
:10341000EC018B017A0163E070E00F94C6175C0148
:10342000F801D70120E030E028173907A4F44081E3
:103430005181628173814D905D906D907C90139766
:1034400041925192619271924D935D936D937D93F0
:103450002F5F3F4FE9CFDC01AA0FBB1FAA0FBB1F95
:10346000F801EA0FFB1FAE0DBF1DAC16BD060CF038
:1034700040C040815181628173810D911D912D91D8
:103480003C91139700831183228333834D935D9383
:103490006D937C931397448155816681778114964F
:1034A0000D911D912D913C911797048315832683CF
:1034B000378314964D935D936D937C931797008596
:1034C0001185228533851896CD90DD90ED90FC9086
:1034D0001B97C086D186E286F38618960D931D93BE
:1034E0002D933C931B9783E0A80EB11C3C961C9631
:1034F000BCCFDF91CF911F910F91FF90EF90DF90A4
:10350000CF90BF90AF907F906F905F904F90089555
:103510002F923F924F925F926F927F928F929F92E3
:10352000AF92BF92CF92DF92EF92FF920F931F93D1
:10353000CF93DF9300D000D0CDB7DEB75C017C83A2
:103540006B838A01FA01C080D180E280F38020E0A1
:1035500030E0A901C701B6010F940B1687FF04C024
:10356000F7FAF094F7F8F0949501220F331F220F29
:10357000331F3A8329831E821D828D819E81EB81B8
:10358000FC818E179F070CF03FC0812C912C212CC1
:10359000312C2A143B0474F5F801E80DF91D408024
:1035A00051806280738020E030E0A901C301B20144
:1035B0000F940B16A301920187FD5058C701B60165
:1035C0000F94081487FF0FC020E030E0A901C30169
:1035D000B2010F940B167301620187FF04C0F7FA62
:1035E000F094F7F8F0943FEF231A330A84E0880E42
:1035F000911CCFCFED81FE813196FE83ED83298131
:103600003A81020F131FB9CFC701B60126960FB634
:10361000F894DEBF0FBECDBFDF91CF911F910F9108
:10362000FF90EF90DF90CF90BF90AF909F908F90E2
:103630007F906F905F904F903F902F9008952F92C2
:103640003F924F925F926F927F928F929F92AF9232
:10365000BF92CF92DF92EF92FF920F931F93CF937F
:10366000DF937B01EE0CFF1CEE0CFF1CE0E0F0E0B2
:1036700000E010E0041715073CF5A0E0B0E0212CB5
:10368000312C5901AE0EBF1E4C018E0E9F1E261608
:103690003706ACF46501CA0EDB1EE601488059808E
:1036A0006A807B806401CA0EDB1EE6014882598273
:1036B0006A827B82DFEF2D1A3D0A1496E8CF0F5FF6
:1036C0001F4FEE0DFF1DD6CFDF91CF911F910F91B0
:1036D000FF90EF90DF90CF90BF90AF909F908F9032
:1036E0007F906F905F904F903F902F9008952F9212
:1036F0003F924F925F926F927F928F929F92AF9282
:10370000BF92CF92DF92EF92FF920F931F93CF93CE
:10371000DF9300D000D0CDB7DEB79E838D834A0102
:103720005B013901181619060CF028C120E030E0C1
:10373000A901C501B4010F940814882309F41EC11E
:103740000130110529F421E0C216D10489F473C0B7
:1037500017FF0EC021E030E04D815E81241B350B48
:10376000209FC001219F900D309F900D112402C019
:1037700080E090E0D7FE0EC021E030E0ED81FE81D8
:103780002E1B3F0B2C9DA0012D9D500D3C9D500DDF
:10379000112402C040E050E09601220F331F220F97
:1037A000331F3C832B83F801EE0FFF1FEE0FFF1F2B
:1037B000FA83E9838A01000F111F000F111F0E0DFC
:1037C0001F1D7C01EE0CFF1CEE0CFF1CE60CF71C11
:1037D000612C712CC12CD12C412C512C18012C0C9A
:1037E0003D1CF701E60DF71D208131814281538197
:1037F000C501B4010F94DD169B01AC01F10160819C
:103800007181828193810F942F13F1016083718301
:1038100082839383FFEF4F1A5F0A2B813C81C20E94
:10382000D31E49815A81640E751E8D819E81481672
:103830005906A1F6A3C0CD80DE8093E0C922DD2425
:1038400013018701412C512C4C145D04ECF4F1015F
:1038500021913191419151911F01C501B4010F9402
:10386000DD169B01AC01F801608171818281938139
:103870000F942F13F80161937193819391938F01AA
:10388000FFEF4F1A5F0AE0CFC601880F991F880F1C
:10389000991F8701080F191F7C0124E0E20EF11C1B
:1038A000E60CF71C4D815E81C416D5060CF066C08F
:1038B000F70134972081318142815381C501B401E0
:1038C0000F94DD169B01AC01F8016081718182814A
:1038D00093810F942F13F801608371838283938304
:1038E000F7012081318142815381C501B4010F94D8
:1038F000DD169B01AC01F801648175818681978199
:103900000F942F13F8016483758386839783F701DF
:103910002481358146815781C501B4010F94DD169C
:103920009B01AC01F80160857185828593850F94B8
:103930002F13F8016087718782879387F7012085AD
:10394000318542855385C501B4010F94DD169B0175
:10395000AC01F80164857585868597850F942F13D2
:10396000F8016487758786879787F4E0CF0ED11CAE
:10397000005F1F4F20E1E20EF11C94CF26960FB698
:10398000F894DEBF0FBECDBFDF91CF911F910F9195
:10399000FF90EF90DF90CF90BF90AF909F908F906F
:1039A0007F906F905F904F903F902F9008952F924F
:1039B0003F924F925F926F927F928F929F92AF92BF
:1039C000BF92CF92DF92EF92FF920F931F93CF930C
:1039D000DF9300D01F92CDB7DEB79C838B836B0142
:1039E0007901181619060CF020C14130510521F457
:1039F0000130110589F46EC057FF0EC021E030E0A0
:103A00008B819C81281B390B249FC001259F900D21
:103A1000349F900D112402C080E090E017FF0EC08B
:103A200061E070E0EB81FC816E1B7F0B609F900179
:103A3000619F300D709F300D112402C020E030E0F6
:103A40001A01220C331C220C331CA801440F551FF1
:103A5000440F551F5A8349838C01000F111F000F1B
:103A6000111F0C0D1D1D6901CC0CDD1CCC0CDD1CC7
:103A7000CE0CDF1C612C712CE12CF12C412C512C33
:103A8000812C912C5401F801EE0DFF1DD601A60DDD
:103A9000B71D2D913D914D915C9160817181828125
:103AA00093810F94DD169B01AC01C501B4010F9405
:103AB0002F134B015C015FEF451A550AE20CF31C12
:103AC00089819A81680E791EEB81FC814E165F0612
:103AD000D1F6AEC08B819C8165E070E00F94C61773
:103AE0008C012C01DA82C9821901612C712C812C84
:103AF000912C540160167106E4F4E981FA81619118
:103B0000719181919191FA83E983F1012191319130
:103B1000419151911F010F94DD169B01AC01C5012C
:103B2000B4010F942F134B015C01FFEF6F1A7F0A52
:103B3000E1CF000F111F000F111FC00ED11EE00EAC
:103B4000F11E4B815C81441655060CF071C0F701E3
:103B50002081318142815381F601608171818281AE
:103B600093810F94DD169B01AC01C501B4010F9444
:103B70002F134B015C01F701248135814681578168
:103B8000F60164817581868197810F94DD169B0112
:103B9000AC01C501B4010F942F134B015C01F70177
:103BA0002085318542855385F60160857185828542
:103BB00093850F94DD169B01AC01C501B4010F94F0
:103BC0002F134B015C01F701248535854685578508
:103BD000F60164857585868597850F94DD169B01B2
:103BE000AC01C501B4010F942F134B015C01F70127
:103BF0002089318942895389F601608971898289D6
:103C000093890F94DD169B01AC01C501B4010F949B
:103C10002F134B015C01F5E04F0E511C24E1C20E45
:103C2000D11C34E1E30EF11C8CCF812C912C54017A
:103C3000C501B4010F900F900F900F90DF91CF91BD
:103C40001F910F91FF90EF90DF90CF90BF90AF90BA
:103C50009F908F907F906F905F904F903F902F90AC
:103C600008952F923F924F925F926F927F928F9220
:103C70009F92AF92BF92CF92DF92EF92FF920F93FB
:103C80001F93CF93DF9300D01F92CDB7DEB79C83F5
:103C90008B83181619060CF09AC0141615060CF032
:103CA00096C0019799F4FB01C080D180E280F38037
:103CB00020E030E0A901C701B6010F940B1687FF81
:103CC00089C0F7FAF094F7F8F09484C0CA01880F1D
:103CD000991F880F991F9A8389838B01812C912CBE
:103CE000A0E8AA2EAFE3BA2E412C512C612C712CE6
:103CF000212C312CF801C080D180E280F38020E0BB
:103D000030E0A901C701B6010F940814882309F413
:103D100044C020E030E0A901C701B6010F940B16A2
:103D200087FF04C0F7FAF094F7F8F094A701960122
:103D3000B201C3010F94081487FF1DC0A7019601AB
:103D4000B201C3010F940F142B013C019B01AC0184
:103D5000C501B4010F94DD16A30192010F94DD1685
:103D600020E030E040E85FE30F942F134B015C014B
:103D70002601370112C09201A301C701B6010F94B9
:103D80000F149B01AC010F94DD169B01AC01C50122
:103D9000B4010F942F134B015C01FFEF2F1A3F0A60
:103DA00089819A81080F191FEB81FC812E163F062D
:103DB00009F0A0CFC501B4010F944A179B01AC01D3
:103DC000B201C3010F94DD166B017C0103C0C12C4D
:103DD000D12C7601C701B6010F900F900F900F9074
:103DE000DF91CF911F910F91FF90EF90DF90CF90D7
:103DF000BF90AF909F908F907F906F905F904F900B
:103E00003F902F9008952F923F924F925F926F9222
:103E10007F928F929F92AF92BF92CF92DF92EF925A
:103E2000FF920F931F93CF93DF93CDB7DEB7E49745
:103E30000FB6F894DEBF0FBECDBF9C878B877A8705
:103E40006987588B4F8729011CA30BA315019C8EF2
:103E50008B8E6096EEADFFAD6097CF01815F984D80
:103E600021E030E08F319E4410F420E030E0CF01BB
:103E700060E177E20F94C61761E070E07E8B6D8B96
:103E8000892B11F41E8A1D8ACF0168EE73E00F940E
:103E9000C6178D599F4FA1E0B0E0BAA3A9A3873CF4
:103EA000910510F41AA219A2CF0164E670E00F94F4
:103EB000C617099641E050E05E8F4D8F439710F48E
:103EC0001E8E1D8ECF016AE070E00F94C61761E070
:103ED00070E078A36F8F892B11F418A21F8E6F8466
:103EE000788871E0671A7108461457040CF432019F
:103EF0006114710409F062C0232B51F0F701808135
:103F00009181A281B381F60180839183A283B383DF
:103F10002D893E89232B51F0F70180819181A28167
:103F2000B381F10180839183A283B3832F8D38A164
:103F3000232B69F0F70180819181A281B3812E96B4
:103F4000EEADFFAD2E9780839183A283B38329A129
:103F50003AA1232BF9F0AB85BC858D909D90AD9057
:103F6000BC9020E030E0A901C501B4010F94081411
:103F7000882391F0A5019401F7016081718182810C
:103F800093810F940F14AB8DBC8D6D937D938D93A6
:103F90009C9313971D8202C0B1E0BD831D86ED8DF9
:103FA000FE8DEF2B09F40BC42C96AEADBFAD2C9754
:103FB0001D921D921D921C92139701C4211531056B
:103FC00029F4ED89FE89EF2BB9F413C0F701D6016E
:103FD00081E090E04F8558894817590794F3419143
:103FE0005191619171914D935D936D937D93019684
:103FF000F1CF232BA1F46DC0F701D10181E090E056
:104000006F85788968177907A4F34191519161917F
:1040100071914D935D936D937D930196F1CFA98539
:10402000BA85A095B095AA0FBB1FAA0FBB1FBE8370
:10403000AD839301220F331F220F331FEBA1FCA18D
:10404000E20FF31FFAABE9AB49855A854F5F5F4F2B
:10405000C3010197849F5001859FB00C949FB00CC1
:104060001124AA0CBB1CAA0CBB1C4B855C85A40E9E
:10407000B51EB601620F731FA985BA858A9F4001DC
:104080008B9F900C9A9F900C1124860C971C880C87
:10409000991C880C991C840E951E18A61FA21EA29E
:1040A0001DA21E861D86E1E0F0E0FA83E9836450DC
:1040B00071097CA76BA7F4E08F1A91082F853889C6
:1040C000261937093CAB2BABA981BA816A167B064E
:1040D00034F48D899E89892B09F07CC09CC0E9A9A4
:1040E000FAA94D855E85E40FF51F3497C080D18015
:1040F000E280F38020E030E0A901C701B6010F940F
:104100000814882309F44CC06DA17EA16A0D7B1DA3
:104110007AA769A7DB018D919D910D90BC91A02D8F
:104120008DA79EA7AFA7B8ABFB01C082D182E28268
:10413000F38201E010E02BA53CA54D855E85240FA0
:10414000351F3A8B298B41E050E06FA178A5680DAF
:10415000791D78876F838BA99CA9A981BA818A0F61
:104160009B1F9C838B8323DC9058A70196010F949F
:104170000F14AB01BC01CC24C394D12CE988FA887C
:104180002F8138858B819C81B2DA2DA53EA54FA564
:1041900058A9A9A5BAA52D933D934D935C93139768
:1041A000E981FA813196FA83E9832D853E85245091
:1041B00031093E872D874DA15EA16D817E81460F1D
:1041C000571F5EA34DA38FA198A5860F971F98A791
:1041D0008FA37ACF2BA13CA138872F83A984BA84DF
:1041E0003FEFA31AB30AAA0CBB1CAA0CBB1C4B853D
:1041F0005C855A8349836F8578897E836D833E868B
:104200002D864A0181E090E09C838B838B819C8189
:104210006816790634F4E9A1FAA1EF2B09F06DC014
:1042200060C0AF81B885CD90DD90ED90FD90B887EE
:10423000AF8320E030E0A901C701B6010F94081454
:104240008823A9F1A981BA812D913D914D915C916D
:104250001397298B3A8B4B8B5C8BFD01C082D182EB
:10426000E282F38201E010E02D853E8541E050E0DE
:10427000B4018D819E819BDB9058A70196010F941C
:104280000F14AB01BC01CC24C394D12CED84FE846B
:1042900094018D819E812BDA29893A894B895C8929
:1042A000A981BA812D933D934D935C931397EB8134
:1042B000FC813196FC83EB8329813A812A0D3B1DD9
:1042C0003A8329834D815E81415051095E834D833C
:1042D0008A0C9B1C6D857E856C5F7F4F7E876D870A
:1042E00095CFAF8DB8A1AB2B91F1B1012E964EAD0C
:1042F0005FAD2E9721E030E017C0B1014B8D5C8D92
:1043000021E030E04216530664F3FB018191919164
:10431000A191B191BF01FA0181939193A193B193BE
:10432000AF012F5F3F4FEECF421653060CF441C052
:10433000FB0181919191A191B191BF01FA0181930A
:104340009193A193B193AF012F5F3F4FEDCFED8DCF
:10435000FE8DEF2BC1F12F85388942165306E4F507
:104360009201B201660F771F660F771FA101460FFA
:10437000571F2C968EAD9FAD2C97680F791F80E04C
:1043800090E02F5F3F4FAF85B889A217B3070CF4B9
:10439000F2C1FA01E80FF91FC080D180E280F380FA
:1043A000FB01E80FF91FC082D182E282F3820496FA
:1043B000E8CF2D8D3E8D232B71F6EF85F8894E16B3
:1043C0005F060CF4DDC1A9A1BAA1AB2BA1F462C0B8
:1043D0008D8D9E8D892BB9F32C96EEADFFAD2C976C
:1043E00081E090E04816590674F3119211921192EF
:1043F00011920196F7CFF201EE0FFF1FEE0FFF1F94
:104400002B8D3C8D2E0F3F1F3A8329832CEF49853E
:104410005A852403B001259F700D11247AA369A346
:1044200040955095440F551F440F551F5E8B4D8B83
:1044300029853A852F5F3F4FC2010197829F400136
:10444000839F900C929F900C1124880C991C880CCF
:10445000991CAB85BC858A0E9B1EE985FA858E9FCB
:1044600050018F9FB00C9E9FB00C1124AA0CBB1C56
:10447000AA0CBB1CAA0EBB1E12011A8A198A188626
:104480001F8221E030E03C832B83EB81FC814E16C0
:104490005F061CF41D821D865CC0A2016B817C81BD
:1044A000461B570B5EA34DA32D823D86E989FA89F1
:1044B000E80DF91DC080D180E280F38020E030E07B
:1044C000A901C701B6010F940814882309F441C05B
:1044D000A7019601A981BA819E918E917E916E91DC
:1044E000BA83A9830F940F14E981FA8160837183E1
:1044F00082839383F1E02F16310489F0AB01BC0174
:104500007058CC24C394D12CEB8CFC8C01E010E0CF
:104510002F8138852A0D3B1D8DA19EA1E8D82B81C6
:104520003C812F5F3F4F3C832B8331E0231A3108BE
:104530004F81588569A17AA1460F571F58874F832D
:1045400089899A89AD89BE898A0F9B1F9A8B898B2D
:104550009CCF2D8D3E8D232B29F44F8D58A1452BBB
:1045600009F42DC169857A8560957095660F771F6E
:10457000660F771F7A83698389859A8501969301EF
:1045800021503109289F1001299F300C389F300C91
:104590001124220C331C220C331C8B859C85280E85
:1045A000391EC301880F991F880F991FABA1BCA1A9
:1045B000A80FB91FBCA3ABA32C96EEADFFAD2C97F3
:1045C000E80FF91FF88FEF8B49855A85249F20014A
:1045D000259F500C349F500C1124460C571C440C42
:1045E000551C440C551C6B857C85460E571E2E961B
:1045F000AEADBFAD2E97A80FB91F1C821B821C86C3
:104600001B86E1E0F0E0FA87E9871497BA8FA98F5B
:10461000F4E04F1A51082F85388926193709388B4D
:104620002F874F89588D44505109588F4F8B89855A
:104630009A85681679060CF4C2C0EBA1FCA16B85C3
:104640007C85E60FF71F3497C080D180E280F3802D
:1046500020E030E0A901C701B6010F9408148823B7
:1046600009F473C0D1018D919D910D90BC91A02D45
:10467000898B9A8BAB8BBC8BF101C082D182E28299
:10468000F3822D8D3E8D232B49F101E010E04F89FF
:10469000588D6B857C85460F571F58874F839A012D
:1046A00041E050E08B809C80840C951CB401AF8469
:1046B000B88889859A85A80EB91EC50178D9905801
:1046C000A70196010F940F14AB01BC01CC24C39435
:1046D000D12CEF80F8849401C50109D8AF8DB8A121
:1046E000AB2B49F101E010E0E98CFA8CEB85FC85FD
:1046F000EE0EFF1E970141E050E08B809C80840C01
:10470000951CB401AF84B88889859A85A80EB91E16
:10471000C5014DD99058D1012D913D914D915C919C
:104720000F940F14AB01BC01CC24C394D12C940181
:10473000C5010E94771B29893A894B895C89D1017F
:104740002D933D934D935C931397E985FA853196AC
:10475000FA87E9872B853C85245031093C872B87D4
:1047600049815A81240E351E6B817C81640F751F2F
:104770007C836B835CCFAF8DB8A1AB2B09F42CCEBF
:10478000C201A201440F551F440F551F2E962EAD96
:104790003FAD2E97420F531F20E030E001966F850A
:1047A0007889681779070CF413CEFA01E20FF31F2A
:1047B00010821182128213822C5F3F4FEFCF8D81C6
:1047C0009D85E4960FB6F894DEBF0FBECDBFDF9196
:1047D000CF911F910F91FF90EF90DF90CF90BF90FE
:1047E000AF909F908F907F906F905F904F903F9091
:1047F0002F9008952F923F924F925F926F927F92E7
:104800008F929F92AF92BF92CF92DF92EF92FF92E0
:104810000F931F93CF93DF931F921F92CDB7DEB7F5
:104820003A83298338012601650114010115110518
:1048300091F01F922EE62F93DF92AF92DF92AF920C
:104840004201088D198D9301DEDA0F900F900F90C1
:104850000F900F900F90F10180E090E029813A8154
:10486000821793074CF420813181319521953109CC
:10487000219331930196F2CF9301220F331F220F20
:10488000331F240D351D80E090E0A981BA816A169E
:104890007B0664F4F901E80FF91F1082118212827D
:1048A00013824FEF641A740A0496EFCF3201B101FC
:1048B00041E050E0E981FA81E417F507E4F1FB01FA
:1048C000208131811216130674F131952195310939
:1048D000318320832417350731F1D3018D909D90CA
:1048E000AD90BC901397F901E150F04CEE0FFF1F13
:1048F000EE0FFF1FE40DF51DC080D180E280F38034
:10490000CD92DD92ED92FC92139780829182A282E9
:10491000B382F901E150F048EE0FFF1FE20DF31DE5
:1049200020813181D2CF4F5F5F4F6E5F7F4FB4E008
:104930006B0E711CBFCF0F900F90DF91CF911F9125
:104940000F91FF90EF90DF90CF90BF90AF909F902E
:104950008F907F906F905F904F903F902F90089531
:104960002F923F924F925F926F927F928F929F927F
:10497000AF92BF92CF92DF92EF92FF920F931F936D
:10498000CF93DF934C016A017B0139011816190698
:104990000CF0A3C00130110509F069C065E070E0BA
:1049A0000F94C617EC012C01590100E010E00C1720
:1049B0001D0794F4A7019601F50160817181828140
:1049C00093810F94DD16F501619371938193919317
:1049D0005F010F5F1F4FEBCFCC0FDD1FCC0FDD1F33
:1049E000C60DD71D481459040CF077C0A7019601D5
:1049F000688179818A819B810F94DD166883798330
:104A00008A839B83A70196016C817D818E819F8122
:104A10000F94DD166C837D838E839F83A70196019F
:104A2000688579858A859B850F94DD1668877987E7
:104A30008A879B87A70196016C857D858E859F85DA
:104A40000F94DD166C877D878E879F87A70196015F
:104A5000688979898A899B890F94DD16688B798B9F
:104A60008A8B9B8BF5E04F0E511C6496BBCF17FFD2
:104A70000CC081E090E088199909809F2001819FF6
:104A8000500C909F500C112402C0412C512C180145
:104A9000220C331C220C331C440C551C440C551C9A
:104AA000460C571C00E010E0C0E0D0E05201A00E20
:104AB000B11EA7019601F501608171818281938108
:104AC0000F94DD16F50160837183828393832196B1
:104AD000020D131DC815D90549F7DF91CF911F911C
:104AE0000F91FF90EF90DF90CF90BF90AF909F908D
:104AF0008F907F906F905F904F903F902F90089590
:104B00002F923F924F925F926F927F928F929F92DD
:104B1000AF92BF92CF92DF92EF92FF920F931F93CB
:104B2000CF93DF93CDB7DEB7E8970FB6F894DEBF2B
:104B30000FBECDBF98878F83788F6F8B3A013A8BEA
:104B4000298B1AA709A7FE8EED8EDCA6CBA6AB2873
:104B500009F4C7C06C0144244394512C01E010E0D7
:104B600029893A89201731070CF44BC0D7018D9160
:104B70009C91119797FF07C088279927801B910B5D
:104B80008D939C9335C0F70111830083892B81F1AC
:104B900004151505D1F0C20101972F89388D829F28
:104BA000B001839F700D929F700D1124660F771FC7
:104BB000660F771F4F815885640F751F16141704F1
:104BC00024F4A601C3010E94FA19F201E150F04851
:104BD000EE0FFF1F8D8D9E8DE80FF91F8081918153
:104BE000D7018D939C9311830083BFEF4B1A5B0A0F
:104BF0000F5F1F4FE2E0EE0EF11CF4E0CF0ED11C70
:104C0000AFCF8901000F111F4D8D5E8D040F151F51
:104C10002CEF4F89588D24035001259FB00C11248F
:104C200089899A890197849F7001859FF00C949FD0
:104C3000F00C1124EE0CFF1CEE0CFF1C8F819885EC
:104C4000E80EF91E29883A886101812C912C1C14E8
:104C50001D040CF04BC0D8019E918E918D0197FFE1
:104C60003AC09195819591098D939C93C214D30478
:104C700079F1A4014E0D5F1DC1010197EF89F88DF7
:104C80008E9FB0018F9F700D9E9F700D1124660F37
:104C9000771F660F771F2F813885620F731F1614D9
:104CA00017041CF4C3010E94FA19F101E150F04805
:104CB000EE0FFF1F4D8D5E8DE40FF51F80819181FA
:104CC000D8012D913C911197318320838D939C9332
:104CD000B1E02B1A3108E1E0CE1AD1088A0C9B1CF6
:104CE000B6CF212C312C44244394512C2F89388D5C
:104CF000220F331F220F331F3A8F298FAF80B884C2
:104D0000A21AB30A9201215031094F89588D249F6C
:104D1000C001259F900D349F900D1124880F991F7D
:104D2000880F991FA80EB91E8201000F111F000FD6
:104D3000111F89A49AA4800E911E9201E12CF12CDE
:104D4000C12CD12C898D9A8DC80ED91E94E0E90E04
:104D5000F11C22163306BCF041E050E0B5016C0DA9
:104D60007D1DC3012FAB38AF0E94311EF401EE0D43
:104D7000FF1D389760837183828393832FA938AD99
:104D80002F5F3F4FDFCFABA5BCA5A00FB11F920196
:104D900080E090E00496221633069CF0F401E80FC0
:104DA000F91F38974081518162817381FD01E80FBD
:104DB000F91F389740835183628373832F5F3F4F7E
:104DC000E9CFA989BA89B8ABAFA76A167B0614F4F4
:104DD00078AA6FA6E98DFA8D3496FEA7EDA729A5CE
:104DE0003AA53C8F2B8F4BA55CA558A34F8FC301D1
:104DF00001979AA389A3AF81B885B8A7AFA3BA8357
:104E0000A9834D01AA24A394B12C4FA558A94A15F2
:104E10005B050CF45CC2A414B5040CF4A0C0A2148D
:104E2000B3040CF09CC0BAAAA9AA7501C12CD12C5C
:104E30001B8A1B821D8A10E0EB8DFC8D3496FCA32F
:104E4000EBA3EBA1FCA1EC0DFD1D3497208129877C
:104E500031813B8742814F870381502F6B897B8152
:104E60008D89912F0F94081487FD08C05B8959879D
:104E70008B818B879D899F87012F02C0FAAAE9AA9F
:104E8000AFEFEA1AFA0AB4E0CB0ED11C2E143F049D
:104E900044F0E985EB8BFB85FB832F852D8B102F51
:104EA000D0CF49A95AA94A155B0509F458C0CA01CF
:104EB0000197AF89B88D8A9FA0018B9F500D9A9F53
:104EC000500D1124440F551F440F551FEF81F885D5
:104ED0004E0F5F1F161417042CF46FA178A5C301A1
:104EE0000E94FA1989A99AA98150904C880F991F9C
:104EF000880F991FAB8DBC8D4D915D916D917C910B
:104F0000E9A5FAA5E80FF91F4083518362837383F3
:104F1000EF8DF8A14081518162817381EBA5FCA5E1
:104F2000E80FF91F408351836283738349A95AA90B
:104F300041505048440F551F2D8D3E8D420F531F39
:104F4000DA018D919C911197F501EE0FFF1FE20F91
:104F5000F31F329122912D933C9391838083EB8DAB
:104F6000FC8D1192119211921192FC8FEB8FA6146D
:104F7000B70409F48BC129A13AA12F5F3F4F3E8BA3
:104F80002D8B41E050E0B401C9010E94311E6B87B6
:104F90007C878D879E8720E030E0A9010F9408145C
:104FA000882309F473C1A981BA81CD90DD90ED9079
:104FB000FC9020E030E0A901C701B6010F9408146D
:104FC0008823E1F020E030E0A901C701B6010F9489
:104FD000081487FF05C020E030E040E85FEB04C024
:104FE00020E030E040E85FE36B857C858D859E8521
:104FF0000F94DD166B877C878D879E872B853C857C
:105000004D855E8560E070E080E89FE30F940F14AB
:10501000AB01BC0101E010E094018D899E89A0DC08
:1050200020E030E040E85FE3E981FA81608171814E
:10503000828193810F942F13A981BA816D937D93FF
:105040008D939C931397F5013196FA87E987298D03
:105050003A8D280D391D3EAB2DAB4F8D58A14C5FBD
:105060005F4F5C8B4B8B8B8D9C8D988B8F872985AD
:105070003A8549895A89421753070CF4EDC001E07B
:1050800010E02DA93EA941E050E0B4018D899E8930
:105090000E94D71C9058A981BA812D913D914D91C4
:1050A0005C910F940F14AB01BC01CC24C394D12CA0
:1050B000EDA8FEA894018D899E890E94771BE98541
:1050C000FA85E415F5050CF4ADC02E163F060CF478
:1050D000A9C0AF85B8892D913D914D915C912B83ED
:1050E0003C834D835E8320E030E0A9016B817C81AD
:1050F0008D819E810F940814882309F493C0EDA933
:10510000FEA9C080D180E280F38020E030E0A901D8
:10511000C701B6010F940B1687FF04C0F7FAF0948D
:10512000F7F8F0942B813C814D815E81C701B60177
:105130000F940F149B01AC010F94DD169B01AC0181
:1051400060E070E080E89FE30F942E136B017C0118
:1051500020E030E0A9010F940B1618161CF0C12CAA
:10516000D12C7601AB89BC892D913D914D915C91FB
:105170006B817C818D819E810F940F146BA37CA326
:105180008DA39EA32DEC3CEC4CE45DE3C701B6017E
:105190000F94DD1669AB7AAB8BAB9CAB2BA13CA11A
:1051A0004DA15EA1CA01B9010F94DD169B01AC01AE
:1051B00069A97AA98BA99CA90F94DD1620E030E09B
:1051C00040E85FE30F942F1320E030E040E85FE316
:1051D0000F940814882379F0C701B6010F944A1779
:1051E0009B01AC016B817C818D819E810F94DD16CA
:1051F000EF85F88913C041E050E06DA97EA96C5F8E
:105200007F4F89A19AA10E94311EAF85B8896D9305
:105210007D938D939C931397EB89FC8960837183B5
:105220008283938329853A852F5F3F4F3A87298769
:105230004F8558894C5F5F4F588B4F878B899C896E
:1052400004969C8B8B8BADA9BEA9E98DFA8DAE0F10
:10525000BF1FBEABADAB0BCFE981FA8180819181DD
:10526000A281B3812B8D3C8D24503109F9018083BB
:105270009183A283B3838B859C85AD85BE85B05811
:10528000E981FA8180839183A283B383FFEFAF1A10
:10529000BF0A2DA53EA5820E931E49815A81420F59
:1052A000531F5A8349838F8D98A1049698A38F8F9B
:1052B000AFA1B8A5E98DFA8DAE0FBF1FB8A7AFA3F8
:1052C00029A13AA1215031093AA329A39ECDE896FC
:1052D0000FB6F894DEBF0FBECDBFDF91CF911F9107
:1052E0000F91FF90EF90DF90CF90BF90AF909F9085
:1052F0008F907F906F905F904F903F902F90089588
:105300002F923F924F925F926F927F928F929F92D5
:10531000AF92BF92CF92DF92EF92FF920F931F93C3
:10532000CF93DF93CDB7DEB72C970FB6F894DEBFDF
:105330000FBECDBF9A8389837C836B831A013901A9
:10534000EF82F88609871A87DE82CD827501840193
:105350002DB73EB73C872B87C301880F991F880F55
:10536000991FEDB7FEB7E81BF90B0FB6F894FEBF17
:105370000FBEEDBF2DB73EB72F5F3F4F6901F5015F
:1053800080E090E08615970524F411921192019621
:10539000F9CFAA24A394B12C9301A1016B817C8144
:1053A00089819A81ADDBED81FE811182108223011A
:1053B000261437040CF421010B811C810F5F1F4F51
:1053C000000F111F000F111F29803A80612C712CD2
:1053D000641475040CF03FC0F101C080D180E280FC
:1053E000F38020E030E0A901C701B6010F940B164D
:1053F00087FF04C0F7FAF094F7F8F094E981FA8196
:1054000080809180A280B38020E030E0A901C501B6
:10541000B4010F940B1687FF04C0B7FAB094B7F825
:10542000B094200E311EA50194016F817885898585
:105430009A850F94DD169B01AC01C701B6010F944C
:105440000814181644F4FFEF6F1A7F0AED81FE81ED
:1054500071826082BDCF2B853C850FB6F8943EBF2C
:105460000FBE2DBF2C960FB6F894DEBF0FBECDBF7A
:10547000DF91CF911F910F91FF90EF90DF90CF9030
:10548000BF90AF909F908F907F906F905F904F9064
:105490003F902F9008952F923F924F925F926F927C
:1054A0007F928F929F92AF92BF92CF92DF92EF92B4
:1054B000FF920F931F93CF93DF93CDB7DEB72A9759
:1054C0000FB6F894DEBF0FBECDBF9A8389832B0140
:1054D0001A013901DC82CB82B886AF829A8689862E
:1054E0008CA18D839DA19E838EA19FA164177507BA
:1054F00054F11216130654F51816190654F50197AF
:1055000039F48D809E80AAA0BBA089819A81F8DEA3
:10551000EB81FC8100811181FE81FF938D818F934E
:105520008AA09BA0A8A0B9A0C984DA84EF80F884DF
:105530009301A101B20189819A815CD90F900F90EA
:1055400080E090E008C08FEF9FEF05C08EEF9FEFE7
:1055500002C08DEF9FEF2A960FB6F894DEBF0FBE04
:10556000CDBFDF91CF911F910F91FF90EF90DF9012
:10557000CF90BF90AF909F908F907F906F905F90F3
:105580004F903F902F9008952F923F924F925F92AD
:105590006F927F928F929F92AF92BF92CF92DF9243
:1055A000EF92FF920F931F93CF93DF9300D01F9240
:1055B000CDB7DEB74C013B012A014DB75EB75C8326
:1055C0004B83469EC001479E900D569E900D112420
:1055D000880F991F880F991F481B590B0FB6F89415
:1055E0005EBF0FBE4DBF8DB79EB701961C01C201B5
:1055F000880F991F481B590B0FB6F8945EBF0FBE5A
:105600004DBF8DB79EB701965C01C201880F991FEF
:10561000880F991F481B590B0FB6F8945EBF0FBE39
:105620004DBF8DB79EB701966C01C301880F991FBE
:10563000880F991F481B590B0FB6F8945EBF0FBE19
:105640004DBF8DB79EB701967C01A201B301C10188
:105650000E941F1BA101B201C3010E94881A9B0175
:10566000AC0160E070E080E895E20F940F141F92A7
:1056700021E02F93DF92CF92BF92AF92FF92EF92F1
:1056800058019E012F5F3F4F69017B018C01920100
:10569000A301B301C101FFDE4DB75EB7485F5F4FA5
:1056A0000FB6F8945EBF0FBE4DBF8B819C810FB6C5
:1056B000F8949EBF0FBE8DBF0F900F900F900F906C
:1056C000DF91CF911F910F91FF90EF90DF90CF90DE
:1056D000BF90AF909F908F907F906F905F904F9012
:1056E0003F902F9008951092FF0408958091FF0439
:1056F000882309F4AFC0EAECFFE28491882341F0EB
:105700009091C00095FFFCCF8093C6003196F5CFF5
:10571000EDEAF2E08491882341F09091C00095FF7A
:10572000FCCF8093C6003196F5CF8091FF0480FFB7
:105730001FC0609100057091010580910205909154
:1057400003050F94AA142091DE153091DF154091C6
:10575000E0155091E1150F940F14AB01BC0189EADB
:1057600092E00E943C9760E089E992E00E94B74E87
:105770008091FF0481FF1FC06091040570910505B1
:1057800080910605909107050F94AA142091E215C7
:105790003091E3154091E4155091E5150F940F14E5
:1057A000AB01BC0185E992E00E943C9760E085E88E
:1057B00092E00E94B74E8091FF0482FF1FC060916B
:1057C00008057091090580910A0590910B050F94C9
:1057D000AA142091E6153091E7154091E8155091F3
:1057E000E9150F940F14AB01BC0181E892E00E940F
:1057F0003C9760E081E792E00E94B74E8091FF0401
:1058000083FF1FC0609108057091090580910A050A
:1058100090910B050F94AA142091E6153091E7158D
:105820004091E8155091E9150F940F14AB01BC019C
:1058300083E692E00E943C9760E082E592E00E945D
:10584000B74E8091C00085FFFCCF8AE08093C600F0
:105850001092FF04089580930A0208950F931F93F6
:10586000CF93DF9320913105E0913205F09133051C
:1058700020FF10C081A181114CC086B1A82FA1705A
:10588000B0E03A2FAB2B09F445C08091FE0480FFB5
:1058900041C014C031A13323E1F136B131FB882777
:1058A00080F990E091958195910980719927382F21
:1058B000892B81F18091FE0484FF2CC0808191812D
:1058C000A281B381181619061A061B061CF58091D1
:1058D000EE049091EF04A091F004B091F104809354
:1058E000000590930105A0930205B09303058091F4
:1058F000FF0481608093FF0480899189A289B38924
:1059000080931B0590931C05A0931D05B0931E0565
:1059100001C030E0832F90E036B121FF15C032FB8B
:10592000002700F910E011950195110908271927A2
:105930000270112708271927302F01FF48C08091D6
:10594000FE0481FF44C019C0369536953695A1E016
:105950003A273170C32F30E0D32FD195C195D109AB
:10596000C827D927C072DD27C827D9273C2FC5FFF4
:105970002EC08091FE0485FF2AC084819581A68176
:10598000B781181619061A061B060CF58091F20449
:105990009091F304A091F404B091F5048093040570
:1059A00090930505A0930605B09307058091FF0429
:1059B00082608093FF0480899189A289B389809352
:1059C0001B0590931C05A0931D05B0931E0522FF97
:1059D00099C026B1832F90E024FB662760F970E020
:1059E00022273327261B370B2827392724703327F4
:1059F0002827392722FF2EC08091FE0482FF2AC06B
:105A000080859185A285B385181619061A061B068E
:105A10000CF58091F6049091F704A091F804B091F0
:105A2000F9048093080590930905A0930A05B093A3
:105A30000B058091FF0484608093FF048089918925
:105A4000A289B38980931B0590931C05A0931D0523
:105A5000B0931E0586B182958695877091E089275F
:105A6000482F417050E051954195510942275327E5
:105A70004870552742275327342F43FF43C0809156
:105A8000FE0483FF3FC080859185A285B3851816EB
:105A900019061A061B060CF58091F6049091F7047E
:105AA000A091F804B091F90480930805909309053A
:105AB000A0930A05B0930B058091FF048460809346
:105AC000FF0480899189A289B38980931B059093F3
:105AD0001C05A0931D05B0931E058091F6049091BE
